:100000009AC1B4C1B3C1B2C160C5B0C1AFC1AEC1C4
:10001000ADC1ACC1ABC1AAC1A9C1A8C120C2A6C112
:10002000A5C1A4C1A3C1A2C1A1C1A0C19FC19EC1BC
:100030009DC19CC1207F0000000000000000000066
:10004000005F000000000007000000070000002221
:100050007F22227F220000242A6B2A120000002225
:100060001008042200002056494956205000000084
:1000700000070000000000001C22410000000000FA
:1000800041221C000000002A1C7F1C2A00000008DE
:10009000083E080800000000403000000000000892
:1000A0000808080808000000006060000000004028
:1000B000201008040200003E5149453E0000004067
:1000C000427F404000000062514949460000002242
:1000D000414949360000001C12517F5000000027A2
:1000E000454545390000003C4A49493000000001BF
:1000F0000179050300000036494949360000000631
:100100004949291E00000000001200000000000004
:1001100040320000000000000814224100000014DA
:1001200014141414140000004122140800000002EA
:100130000159090600003C4299A5A5B9221C007E80
:100140000909097E0000007F494949360000003E48
:10015000414141220000007F4141413E0000007FBB
:10016000494941410000007F090909010000003EA2
:100170004141493A0000007F0808087F0000000064
:10018000417F4100000000204040403F0000007FD0
:10019000081422410000007F404040400000007FE2
:1001A0000204027F0000007F0408107F0000003E70
:1001B0004141413E0000007F090909060000003E60
:1001C000416141BE0000007F091929460000002658
:1001D0004949493200000001017F01010000003F50
:1001E0004040403F0000001F2040201F0000007FD3
:1001F0002010207F00000063140814630000000733
:1002000008700807000000615149454300000000E4
:100210007F4141000000000204081020400000005F
:100220000041417F000000000402010204008080C0
:10023000808080808080000000010200000000209B
:10024000545454780000007F44444438000000387F
:1002500044444428000000384444447F00000038EF
:100260005454544800000000047E050500000018A6
:10027000A4A4A47C0000007F040404780000000013
:10028000447D4000000000408080847D0000007FAD
:100290001010284400000000417F40000000007C56
:1002A000047804780000007C04040478000000381E
:1002B00044444438000000FC444444380000003802
:1002C000444444FC0000007C08040404000000488E
:1002D0005454542400000000043F44000000003C3B
:1002E0004040207C0000001C2040201C0000001C1E
:1002F000601C601C00000044281028440000001C02
:10030000A0A0A07C0000004464544C440000000005
:10031000083641000000000000FF0000000000005F
:10032000413608000000080404081010080000000E
:1003300000000000000011241FBECFEFD4E0DEBF9C
:10034000CDBF12E0A0E0B1E0E0E8F8E102C0059026
:100350000D92AA35B107D9F722E0AAE5B2E001C0B3
:100360001D92A039B207E1F7ABD288CA49CEA4E109
:10037000B0E0ECEBF1E0C3C78E010F5F1F4F84E1EB
:10038000F80111928A95E9F780915B028F93809131
:100390005A028F938BE991E09F938F931F930F9352
:1003A000DED720E0A80162E070E080E090E0FBD2C0
:1003B000809101018F93809100018F9385EA91E0F4
:1003C0009F938F931F930F93CAD720E0A80163E0F8
:1003D00070E080E090E0E7D20FB6F894DEBF0FBE89
:1003E000CDBF6496E4E0A7C781E020915C02309124
:1003F0005D02121613060CF080E0089510925D0263
:1004000010925C02089590935F0280935E02CB018C
:100410006AE070E03FD770935D0260935C020895DC
:100420008AEF87BD84B5826084BD85B5836085BD54
:10043000EEE6F0E08081826080830895809168021A
:10044000909169029093670280936602089580916B
:1004500068029091690208958AE090E008951F92E1
:100460000F920FB60F9211242F933F934F935F93E8
:100470006F937F938F939F93AF93BF93EF93FF936C
:100480008091640290916502019665E070E002D768
:100490009093650280936402892B91F580916802A4
:1004A00090916902019660E177E2F4D69093690237
:1004B000809368028091600290916102181619067B
:1004C00064F401979093610280936002892B29F470
:1004D000E0916202F0916302099580915C02909133
:1004E0005D021816190664F4019790935D028093DB
:1004F0005C02892B29F4E0915E02F0915F0209957C
:10050000FF91EF91BF91AF919F918F917F916F91EB
:100510005F914F913F912F910F900FBE0F901F90C1
:1005200018952FEF80E792E0215080409040E1F74E
:1005300000C00000AFD274DF11D280DF789408953C
:10054000A4E1B0E0E5EAF2E0DAC68E010F5F1F4FEA
:1005500084E1F80111928A95E9F78AD220911C0171
:1005600030911D01820F931F90931D0180931C01F8
:10057000181619062CF010921D0110921C010DC0C6
:1005800020912201309123018217930730F02150EE
:10059000310930931D0120931C01E0911C01F09161
:1005A0001D01EE0FFF1FEE5FFE4F81818F93808153
:1005B0008F9388EA91E09F938F931F930F93CFD6E9
:1005C00022E0A80161E070E080E090E0ECD10F90C3
:1005D0000F900F900F900F900F906496E4E0ABC6D1
:1005E000A4E1B0E0E5EFF2E08AC68E010F5F1F4F95
:1005F00084E1F80111928A95E9F73AD220917E01BF
:1006000030917F01820F931F90937F0180937E0131
:10061000181619062CF010927F0110927E010DC061
:1006200020918401309185018217930730F0215089
:10063000310930937F0120937E01E0917E01F0919A
:100640007F01EE0FFF1FE45BFE4F81818F9380815E
:100650008F9388EA91E09F938F931F930F937FD698
:1006600022E0A80161E070E080E090E09CD10F9072
:100670000F900F900F900F900F906496E4E05BC680
:10068000A4E1B0E0E5E4F3E03AC68E010F5F1F4F4E
:1006900084E1F80111928A95E9F7EAD120914301AA
:1006A00030914401820F931F909344018093430142
:1006B000181619062CF010924401109243010DC037
:1006C0002091490130914A018217930730F021505F
:1006D00031093093440120934301E0914301F091AB
:1006E0004401EE0FFF1FEB5DFE4F81818F938081F0
:1006F0008F9388EA91E09F938F931F930F932FD648
:1007000022E0A80161E070E080E090E04CD10F9021
:100710000F900F900F900F900F906496E4E00BC62F
:10072000A4E1B0E0E5E9F3E0EAC58E010F5F1F4FF9
:1007300084E1F80111928A95E9F79AD1209191010B
:1007400030919201820F931F9093920180939101B7
:10075000181619062CF010929201109291010DC0FA
:1007600020919701309198018217930730F0215022
:1007700031093093920120939101E0919101F09120
:100780009201EE0FFF1FE957FE4F81818F93808109
:100790008F9388EA91E09F938F931F930F93DFD5F8
:1007A00022E0A80161E070E080E090E0FCD00F90D2
:1007B0000F900F900F900F900F906496E4E0BBC5E0
:1007C000A8E2B0E0E5EEF3E09AC58E010F5F1F4F9F
:1007D00084E1F80111928A95E9F74AD1209100014C
:1007E000309101012D5F3F4F820F931F8370992736
:1007F000019690930101809300018330910599F057
:1008000084309105F1F0029751F561EC71E0CE0171
:1008100045969ED5E0919101F0919201EE0FFF1F58
:10082000E957FE4F29C060EB71E0CE01459690D5A7
:10083000E0914301F0914401EE0FFF1FEB5DFE4F8D
:100840001BC062ED71E0CE01459682D5E0911C019E
:10085000F0911D01EE0FFF1FEE5FFE4F0DC063EE26
:1008600071E0CE01459674D5E0917E01F0917F0153
:10087000EE0FFF1FE45BFE4F81818F9380818F938A
:1008800088EA91E09F938F931F930F9368D50F9001
:100890000F900F900F900F900F9020E0AE014B5EE5
:1008A0005F4F60E070E080E090E07DD020E0A80144
:1008B00061E070E080E090E076D0A896E4E03BC58F
:1008C00030DE87EB91E045D0C5E0D0E080915A0260
:1008D00090915B0283309105C1F038F4813091052D
:1008E000B1F0029701F51CDF07C08430910519F0C3
:1008F000059779F018C024DEB1D0882321F010923A
:100900005B0210925A02AFD022C0BADEF5CF68DE89
:10091000F3CFA9D0882321F010925B0210925A02E3
:10092000A2D0A6D014C04CDF99D0882349F0809182
:1009300000019091010190935B0280935A0207C0DD
:1009400092D0882321F0D0935B02C0935A0225D025
:10095000BDCF90936E0280936D0208950F931F9305
:1009600005E116E022ED35E04BE657E066E778E07A
:100970008FE692E049D48FE692E05AD38FE692E078
:10098000A4D360E08FE692E05ED364E370E08FE68C
:1009900092E0C2D11F910F910895E0916D02F09104
:1009A0006E0209950895A0E0B0E0E8EDF4E0A3C47C
:1009B000F82EE62E8A01C22F4ADD60E177E24091EF
:1009C0006B0250916C02FB01E41BF50B8E0F9F1F15
:1009D00061D46C0141DDBC018AEF90E05BD4C616A6
:1009E000D70658F034DD90936C0280936B028091AF
:1009F0006A0291E0982790936A02C1FD08C0DC2F3B
:100A0000D170C0FF13C081E0809380020FC080913D
:100A10006A028823A1F390E020E2F801E90FF11DBA
:100A20008081882361F320839F5FF7CF98014E2D4B
:100A30006F2D8FE692E0B3D1D11110928002CDB725
:100A4000DEB7E8E074C486B180918F02882329F074
:100A500081E080938A0210928F02089580918B0228
:100A600010928B02089580918A0210928A02089552
:100A700020918D02822F90E080589F4F30918C0200
:100A8000831B910960E071E019D420938C02805897
:100A9000910908952FEF80E792E021508040904027
:100AA000E1F700C00000E8E6F0E08081826080832A
:100AB000ECE6F0E080818760808386B180939A01C4
:100AC00080918D0280938C0208951F920F920FB631
:100AD0000F9211242F933F934F935F936F937F93C4
:100AE0008F939F93AF93BF93CF93DF93EF93FF9336
:100AF00086B1C0919A01C82780939A018FEC97E044
:100B00000197F1F700C00000D6B1C2FF1EC08FE10F
:100B10009EE40197F1F700C00000D2FF0EC0809163
:100B20008F02882391F060DC882321F067DC81E06C
:100B300080938B0210928F0208C081E080938F0215
:100B400060E273E083E295E05EDCC0FF03C082E018
:100B500080938E02C1FF13C080918E02882379F0AA
:100B6000815080938E02D1FD02C08FEF01C081E0E1
:100B7000D0FF819590918D02890F80938D02FF9116
:100B8000EF91DF91CF91BF91AF919F918F917F9125
:100B90006F915F914F913F912F910F900FBE0F90EA
:100BA0001F901895683121F138F46431B9F067313C
:100BB000D1F5F90184E80AC0693169F16032B1F018
:100BC00032C09091BC0097FFFCCF4150442371F09C
:100BD00091919093BB008093BC00F3CF1092B90029
:100BE00083E08093B80084E08093BC0081E00895A6
:100BF00024EA2093BC002091BC0027FFFCCFFC011D
:100C000082898093BB0084E88093BC008091BC0003
:100C100087FFFCCFEBCF84E98093BC00FAE1FA9523
:100C2000F1F700C0E3CF80E008956D32A9F058F4E9
:100C3000683271F0693211F58FEC97E00197F1F7A6
:100C400000C000001BC06C3461F06D3489F016C028
:100C500087B18F7C87B912C092E09A95F1F700C0F6
:100C60000DC0411103C03D9A459808C03D9806C08B
:100C7000411103C03C9A449801C03C9881E008951A
:100C8000CF93DF93DC011C96ED91FC911D9784912D
:100C90003196E491681710F0E61720F4FA01CA01C2
:100CA000089622C070E0681B710983E0660F771F09
:100CB0008A95E1F7CB010296EA01665F7F4F1C96A9
:100CC000ED91FC911D97E80FF91FE491E9930196CE
:100CD00086179707A1F751968C91882381F0FA0126
:100CE0009A01285F3F4F05C01192E817F907E1F715
:100CF000F2CF808180958193E217F307D1F7DF91DE
:100D0000CF910895662329F06A3019F0862F90E07C
:100D100008958FEF9FEF0895FC017587648708950C
:100D2000A8E0B0E0E5E9F6E0E6C27C01D62EC42EEC
:100D3000AE014F5F5F4F622FA3DF8E010F5F1F4F2A
:100D400021E04C2D6D2DC70150D12896E8E0EFC26F
:100D5000A0E0B0E0EDEAF6E0CFC2EC01E62ED42E42
:100D60001D8A8901F12CF80161918F01EA81FB81D3
:100D7000CE0109958F3FFFEF9F0761F08E3F2FEF68
:100D8000920789F3282F4D2D6E2DCE01C9DFE394F4
:100D9000F394E9CF8F2DCDB7DEB7E7E0C9C2E2E823
:100DA000F6E0DC011396FC93EE931297D1CFEF920D
:100DB000FF921F93CF93DF93EC01162F7A0154D249
:100DC00060E4CE0143D2E885F9859701412F67E1C0
:100DD000CE010995CE0153D2DF91CF911F91FF90A3
:100DE000EF900895462FDC011696ED91FC91179730
:100DF00020E030E065E109950895462FDC01169664
:100E0000ED91FC91179720E030E066E10995089597
:100E10009A01DC011696ED91FC911797462F67E138
:100E200009950895DC011696ED91FC91179720E045
:100E300030E040E068E109950895DC011696ED91F7
:100E4000FC91179720E030E040E069E109950895B2
:100E5000A1E0B0E0EDE2F7E050C27C018B01D801E7
:100E60006C916731D9F078F4653190F1F8014181E6
:100E70004983D7011696ED91FC91179720E030E059
:100E8000C701099522C06A3198F06E3F09F5F80153
:100E90004181498369E2C70198D117C0F801818176
:100EA0008983AE014F5F5F4F61E0C701B1DF0DC0C5
:100EB0000F5F1F4FD7011696ED91FC91179720E019
:100EC00030E040E0C7010995CACF0E5F1F4FC7CF82
:100ED0002196E6E02EC2EF92FF921F93CF93DF930D
:100EE00000D0CDB7DEB77C01142F673128F465310F
:100EF00040F4643119F135C0673169F06A31E0F0CE
:100F000030C0B2D160E0C701A1D1612FC7019ED12D
:100F1000C701B5D111C0A901193158F068E1C70165
:100F200029833A8344DF185129813A81285E3F4F53
:100F3000F2CF612FC7013BDF81E014C0DC01529684
:100F40008C9152978F3F19F488E752968C93D70172
:100F50001896ED91FC911997412F64E1C70109950D
:100F600001C080E00F900F90DF91CF911F91FF9013
:100F7000EF900895FC0171836083FB012289FC01DD
:100F8000208B0895CF93DF93EC01EA85FB8520E069
:100F900030E040E068E20995EE81FF8120E030E03A
:100FA00040E064E1CE01099541E06BE4CE010DD152
:100FB000E881F981448169E2CE0107D140E06BE428
:100FC000CE0103D1E881F981448169E2CE01FDD0EF
:100FD00041E06BE4CE01F9D0E881F981458169E215
:100FE000CE01F3D0DF91CF910895A5E0B0E0EAEF14
:100FF000F7E085C16C834D832B831A830983DC0161
:101000001496ED91FC9115979E012F5F3F4F41E0A3
:101010006FE009952596E4E08EC1DC011496ED9110
:10102000FC91159720E030E040E069E009950895D3
:10103000DC011496ED91FC91159720E030E040E042
:101040006AE009950895462FDC011496ED91FC9114
:10105000159720E030E06BE009950895CF92DF927C
:10106000FF920F931F93CF93DF9300D000D01F9276
:10107000CDB7DEB78C011C8281E08B837A836983D4
:10108000D801ED91FC91F1881D82F801A081B18118
:10109000C480D5809E012F5F3F4F50964C916FE0EA
:1010A000C801F60109959D819F5F9D839F1568F397
:1010B0000F900F900F900F900F90DF91CF911F9195
:1010C0000F91FF90DF90CF900895A8E0B0E0EAE69E
:1010D000F8E017C1BE016F5F7F4F28E0FB0111925E
:1010E0002A95E9F7BBDF2896E2E027C1EF92FF924D
:1010F0000F931F93CF93DF93EC01142F7901693085
:1011000021F464EF71E036DF59C06D3089F128F4C5
:101110006A3001F16B3011F153C06E30D1F16F3094
:1011200009F04EC07FDEF70183810889F8E08F9FC8
:10113000000D1124602F62956F706061CE0152DE48
:10114000602F6F70CE014EDEF7016481606BCE01BF
:1011500049DE27C017DF64E272E007C0411103C017
:101160006FE172E002C06AE172E0CE0171DE26C07A
:10117000411107C063E172E06BDEE881F981828989
:1011800006C06CE072E064DEE881F9818389888BB7
:1011900015C048DE61E8CE0125DE612FCE012DDECF
:1011A0000BC0F701408151816281660F660F660FA7
:1011B000CE012EDE1150A9F7CE013FDE81E001C045
:1011C00080E0CDB7DEB7E6E0B4C0DC011A96ED9161
:1011D000FC911B9720E030E00995089580E0089588
:1011E000FC01118210828EEE98E0958384839783B0
:1011F00086839187808793878287118A148A158ACC
:101200008FEF828B878B0895A0E0B0E0E9E0F9E0F2
:1012100070C0EC015B016A017901E2DFBD82AC8242
:10122000DF82CE82F986E8861B870A87CE01F5DE4B
:10123000CDB7DEB7EAE079C09A01DC011896ED91EE
:10124000FC911997462F67E109950895A1E0B0E058
:10125000EBE2F9E056C06983AE014F5F5F4F61E09A
:10126000EBDF2196E2E069C0DC011896ED91FC917C
:10127000199720E030E040E068E109950895DC012D
:101280001896ED91FC91199720E030E040E069E17B
:1012900009950895AA1BBB1B51E107C0AA1FBB1FDC
:1012A000A617B70710F0A61BB70B881F991F5A95F2
:1012B000A9F780959095BC01CD01089597FB072E65
:1012C00016F4009406D077FD08D0E4DF07FC05D0C3
:1012D0003EF4909581959F4F0895709561957F4F4D
:1012E00008952F923F924F925F926F927F928F92CA
:1012F0009F92AF92BF92CF92DF92EF92FF920F93A5
:101300001F93CF93DF93CDB7DEB7CA1BDB0B0FB6AE
:10131000F894DEBF0FBECDBF09942A88398848886B
:101320005F846E847D848C849B84AA84B984C88401
:10133000DF80EE80FD800C811B81AA81B981CE0FF8
:10134000D11D0FB6F894DEBF0FBECDBFED010895DD
:10135000FB01DC0101900D920020E1F70895AEE061
:10136000B0E0E4EBF9E0CBCF0D891E8986E08C83F9
:101370001A8309838FEF9FE79E838D83AE01475EBB
:101380005F4F6F89788DCE01019609D02F81388506
:10139000F801E20FF31F10822E96E4E0CCCFACE010
:1013A000B0E0E4EDF9E09DCF7C016B018A01FC0126
:1013B00017821682838181FFB0C1CE0101964C0154
:1013C000F7019381F60193FD859193FF81916F0160
:1013D000882309F49EC1853239F493FD859193FFEA
:1013E00081916F01853221F4B70190E0B1D1E8CF4E
:1013F000512C312C20E02032A0F48B3269F030F4F3
:10140000803259F0833269F420612CC08D3239F07A
:10141000803339F4216026C02260246023C0286014
:1014200021C027FD27C030ED380F3A3078F426FF71
:1014300006C0FAE05F9E300D1124532E13C08AE0DF
:10144000389E300D1124332E20620CC08E3221F4D0
:1014500026FD5FC1206406C08C3611F4206802C0EE
:10146000883641F4F60193FD859193FF81916F01D8
:101470008111C1CF982F9F7D9554933028F40C5F34
:101480001F4FFFE3F9830DC0833631F0833771F0CE
:10149000833509F057C021C0F801808189830E5F30
:1014A0001F4F44244394512C540114C03801F2E0DE
:1014B0006F0E711CF801A080B18026FF03C0652D5E
:1014C00070E002C06FEF7FEFC5012C8736D12C0191
:1014D00083012C852F77222E16C03801F2E06F0E83
:1014E000711CF801A080B18026FF03C0652D70E05B
:1014F00002C06FEF7FEFC5012C8714D12C012C8522
:101500002068222E830123FC19C0832D90E0481609
:101510005906A0F4B70180E290E01AD13A94F5CFD1
:10152000F50127FC859127FE81915F01B70190E0CD
:101530000FD131103A94F1E04F1A5108411451047F
:1015400079F7DEC0843611F0893631F5F80127FFCE
:1015500007C060817181828193810C5F1F4F08C039
:1015600060817181072E000C880B990B0E5F1F4F55
:101570002F76722E97FF09C0909580957095619592
:101580007F4F8F4F9F4F2068722E2AE030E0A401DA
:1015900017D1A82EA81843C0853729F42F7EB22E64
:1015A0002AE030E025C0F22FF97FBF2E8F36C1F040
:1015B00018F4883579F0ADC0803719F0883721F0FC
:1015C000A8C02F2F2061B22EB4FE0DC08B2D8460D9
:1015D000B82E09C024FF0AC09F2F9660B92E06C0FE
:1015E00028E030E005C020E130E002C020E132E038
:1015F000F801B7FE07C060817181828193810C5F21
:101600001F4F06C06081718180E090E00E5F1F4F28
:10161000A401D6D0A82EA818FB2DFF777F2E76FE2A
:101620000BC0372D3E7FA51450F474FE0AC072FC27
:1016300008C0372D3E7E05C0BA2C372D03C0BA2C0A
:1016400001C0B52C34FF0DC0FE01EA0DF11D8081F3
:10165000803311F4397E09C032FF06C0B394B394CD
:1016600004C0832F867809F0B39433FD12C030FF95
:1016700006C05A2CB31418F4530C5B18B32CB314D3
:1016800060F4B70180E290E03C8762D0B3943C857F
:10169000F6CFB31410F43B1801C0312C34FF11C045
:1016A000B70180E390E03C8753D03C8532FF16C001
:1016B00031FD03C088E790E002C088E590E0B70103
:1016C0000CC0832F867851F031FF02C08BE201C03D
:1016D00080E237FD8DE2B70190E03AD0A51430F4F6
:1016E000B70180E390E034D05A94F8CFAA94F40183
:1016F000EA0DF11D8081B70190E02AD0A110F6CF4C
:10170000332009F45DCEB70180E290E021D03A9415
:10171000F7CFF7018681978102C08FEF9FEF2C965C
:10172000E2E1FBCDFC010590615070400110D8F75B
:10173000809590958E0F9F1F0895FC016150704019
:1017400001900110D8F7809590958E0F9F1F0895F6
:101750000F931F93CF93DF93FB01238121FD03C0E0
:101760008FEF9FEF28C022FF16C04681578124814A
:1017700035814217530744F4A081B1819D012F5F49
:101780003F4F318320838C93268137812F5F3F4FDA
:101790003783268310C0EB01092F182F0084F185B1
:1017A000E02D0995892BE1F68E819F8101969F831B
:1017B0008E83812F902FDF91CF911F910F910895EC
:1017C000FA01AA27283051F1203181F1E8946F9372
:1017D0006E7F6E5F7F4F8F4F9F4FAF4FB1E03ED018
:1017E000B4E03CD0670F781F891F9A1FA11D680FB6
:1017F000791F8A1F911DA11D6A0F711D811D911DE9
:10180000A11D20D009F468943F912AE0269F11245D
:101810003019305D3193DEF6CF010895462F4770C1
:10182000405D4193B3E00FD0C9F7F6CF462F4F701C
:10183000405D4A3318F0495D31FD4052419302D07A
:10184000A9F7EACFB4E0A695979587957795679520
:10185000BA95C9F700976105710508959B01AC0120
:101860000A2E06945795479537952795BA95C9F747
:10187000620F731F841F951FA01D0895F894FFCF5A
:10188000010001000200030004000500060008003A
:101890000A000C000F0012001400000000000100FC
:1018A00014000C0001010002000400050008000AF9
:1018B0000014001E0032003C0064007800B400C830
:1018C00000000005000100C8000E00010100020038
:1018D0000400060008000A000D000F0014001900A3
:1018E0001E00280032003C00500064008200960078
:1018F000C800FA002C019001F40158020000000019
:10190000010058021800010000020005000A000052
:1019100000000000000A00040000FF6375722073DD
:10192000746174653A2564002020203A25366400ED
:101930003C20202020506572696F64202020203ECA
:10194000003C2020204C61672054696D65202020D8
:101950003E003C204E756D206F662053686F747397
:10196000203E003C20536875747465722054696D84
:1019700065203E000001140A6464323200127A00CD
:101980000004289610040000800020001815A015FF
:10199000C019FF1815A115C819FF1815AE19FF18A1
:1019A00015AF19FF1815AE15D5168015A8161F15F9
:1019B000D316001540158D16141520160015A11507
:1019C000C815DA16021581168F15D916F115DB1612
:0A19D00040152E15A415A619FF00FE
:00000001FF
