:100000003AC254C253C252C210C450C24FC24EC2AE
:100010004DC24CC24BC24AC249C248C2BCC246C20F
:1000200045C244C243C242C241C240C23FC23EC2B4
:100030003DC23CC2600003020304030504070F0035
:10004000FD09FD0BFE016E02DE0428200500C2073B
:100050002107C9C3C721092207A4DE47E414230DE1
:1000600036CE4F940C4BD4322C510224136DBA5718
:10007000982D15254AB22D8912A5B2851100251398
:100080004FC2CF30249912256D492D694AB4444C92
:100090000026104EC2CF94255125AC6451A2454B89
:1000A000002706A1DFC7102809ECBA5FD4D6C7061F
:1000B000290AECBA47D8D6A736002A0B35CE57A561
:1000C000322D4D11002B0A2DC657180D5218012C38
:1000D00008ABB68F2929012D068CCEC7102E06122B
:1000E000C3C7102F0E66BA6F310DD3300DD3304D0C
:1000F0000130104EC2CF9084DA9428D1268AC9905C
:1001000000310A4FC25F38F76D1802320B4EC2CF72
:10011000908469B1E330330E4EC2CF908469694E4A
:10012000C5644800340E4EC267A82551254B863160
:100130000D07350E4EC2C7214D07394DC564480025
:10014000360E4EC2CF90A4E9A0848EC99000370924
:100150004EC2C7B5D8DA06380F4EC2CF9084C664F7
:10016000484263322400390D4EC2CF90848EC9A01C
:100170005686043A083AC3C7100F013B0AD3B68F1C
:100180001D53A4A4043C08CDC267D6B5033D082680
:10019000CEC71D1D063E09CDC247DAAD23003F0C78
:1001A0004EC2CF908469B11DCC00400F4EC2CF909B
:1001B00084D290444A6449E341410D4EC297A84518
:1001C0002DE13088C600420D4EC2C7A084C6610929
:1001D0008DC302430C4EC2CF90846A8FC9900044F5
:1001E0000B4EC2C7A0847E1C1600450C4EC2C72110
:1001F000AD0E4A5A1D06460B4EC2C721AD0E4ADA55
:100200000A470D4EC2CF90846A6D34264302480BD4
:100210004EC247E8380CA26300490B4FC2C7218B7E
:10022000FB360C014A0B4EC26F57D1980C09004B9C
:10023000104EC247A825512513932CAA2561004CC6
:10024000094EC247DAAFC3004D0D4FC247BA2D1554
:10025000299222D5354E0D4EC247B829919468A3F4
:1002600063004F0B4EC2CF90847E4C8604500C4EE0
:10027000C2C7A084C661495B01510E56BECF9084AF
:10028000BE4452920C7100520C4EC2C7A084C6618B
:10029000091D03530F4EC2CF90846A3CC4A9980C29
:1002A000090054094FC2C7218BFB0D550A4EC247A6
:1002B000E88FC99000560F4FC2476A4DB228AB84F1
:1002C000491A6700570D4FC247EA299222A5B2ADDD
:1002D00001580E4EC247684CA24CD4A224140359B4
:1002E0000C4FC2476A4DB24A1AB7015A0A4EC2C7EA
:1002F00035EC351D065B0963BFC710F54F035C0E77
:10030000E6BA471AA7711AA7711AA7015D09E3BED9
:10031000C7D43F0D015E089DDA5796D4025F060FE1
:10032000BAC72160069BE24756610B36C2CF30DA6E
:10033000A6249102620C4EC2475A1D94D0715800F7
:10034000630A36C2CF90846A7910640B4EC26FCBB9
:10035000303A268300650C36C2CF9084C3A0C68392
:1003600000660ACCC297924553D609670D4EB6CFA8
:10037000303A26835A191200680B4EC2475A1D9410
:10038000D0630069094BC34F0E485D066A0AE3B6A5
:10039000570E487D5A006B0E4EC247DA9644954C74
:1003A00089B2240C6C084BC387D42F036D0D37C260
:1003B000C7258AA4488AA4482A6E0A36C247A4944C
:1003C00036D1186F0B36C2CF90848EC99000700C56
:1003D0004EB6C7A0848EC3925601710B4EB6CF3075
:1003E0003A2683DA00720A36C247A494C6B40A7366
:1003F0000B36C2CF300F713A2C00740ACCC24F5664
:100400009AB24601750A36C247E836258914760B3A
:1004100036C2472826519B2801770E37C247144918
:100420009114499154B100780C36C247984499A868
:10043000454918790C4EB647E83119D4CA90007A6C
:100440000836C2C7B1E3307B0BFCB69792F5146651
:100450003D0A7C07E9BBC787007D0CFCB68798F591
:100460001865BD48007E0716D28F64017F0500C263
:1004700007000000000011241FBECFEFD4E0DEBF54
:10048000CDBF11E0A0E0B1E0E8E7FEE102C00590D9
:100490000D92AA38B107D9F723E0AAE8B1E001C06C
:1004A0001D92A130B207E1F7E7D0E4CCA9CDA4E1D9
:1004B000B0E0ECE5F2E018CA8E010F5F1F4F84E157
:1004C000F80111928A95E9F761E071E0C8013CDA20
:1004D00022E0A8016AE070E080E090E00AD18BD1D0
:1004E0001F928F9380918A011F928F9380918B012D
:1004F0001F928F938EE091E09F938F931F930F93A2
:100500002ADA20E0A80165E170E080E090E0F1D017
:100510000FB6F894DEBF0FBECDBF6496E4E000CA0C
:1005200081E020918C0130918D01121613060CF0A0
:1005300080E0089510928D0110928C01089590939F
:100540008F0180938E01CB016AE070E0ABD970938C
:100550008D0160938C0108958AEF87BD84B5826018
:1005600084BD85B5836085BDEEE6F0E08081826064
:1005700080830895809198019091990190939701BB
:100580008093960108958091980190919901089522
:100590008AE090E008951F920F920FB60F921124F7
:1005A0002F933F934F935F936F937F938F939F937B
:1005B000AF93BF93EF93FF93809194019091950136
:1005C000019665E070E06ED9909395018093940157
:1005D000892B91F58091980190919901019660E1A4
:1005E00077E260D99093990180939801809190016E
:1005F000909191011816190664F401979093910156
:1006000080939001892B29F4E0919201F09193015C
:10061000099580918C0190918D011816190664F44A
:10062000019790938D0180938C01892B29F4E0919F
:100630008E01F0918F010995FF91EF91BF91AF91DC
:100640009F918F917F916F915F914F913F912F91EA
:100650000F900FBE0F901F9018952FEF80E792E03C
:10066000215080409040E1F700C00000C7D074DF07
:100670001AD080DF78940895F0DF87E592E00ED0FD
:10068000B0D090918B01892780938B01AFD090914E
:100690008A01892780938A011ED0F2CF90939E0110
:1006A00080939D01089525EC34E042E854E060E237
:1006B00071E08FE991E032D28FE991E0F8D78FE9CC
:1006C00091E021D260E08FE991E0FCD764E370E033
:1006D0008FE991E026C58FE991E0DCD1E0919D01A1
:1006E000F0919E0109958FE991E0E5D18111F6CF56
:1006F0000895A0E0B0E0EEE7F3E0EFC8082F962EF3
:100700007A01122F40DFEC01A0909B01B0909C0178
:100710003FDF6C013DDF9C01C05FD84DC501B601D4
:10072000C1D8CE01861B970B60E177E2BBD8FC01F4
:1007300080E991E0B901B6D8E617F707A8F023DF02
:10074000EC0126DF9C012C9FC0012D9F900D3C9F4A
:10075000900D112490939C0180939B0190919A019C
:1007600081E0892780939A0111FD0DC0C12FC170CE
:1007700010FF18C060E08FE991E051D560E08FE98B
:1007800091E0F4D30FC080919A01882379F390E02F
:1007900020E2F701E90FF11D8081882339F32083DE
:1007A0009F5FF7CF9701492D602F8FE991E068D4C3
:1007B000CC2341F061E08FE991E031D561E08FE930
:1007C00091E0D4D3CDB7DEB7EBE0A3C886B180917A
:1007D0000002882329F081E08093FC01109200023E
:1007E00008958091FD011092FD0108958091FC0112
:1007F0001092FC0108958091FE0108952FEF80E78B
:1008000092E0215080409040E1F700C00000E8E60F
:10081000F0E0808182608083ECE6F0E08081876098
:10082000808386B18093000108951F920F920FB6C6
:100830000F9211242F933F934F935F936F937F9366
:100840008F939F93AF93BF93CF93DF93EF93FF93D8
:1008500086B1C0910001C827809300018FEC97E01A
:100860000197F1F700C00000D6B1C2FF1EC08FE1B2
:100870009EE40197F1F700C00000D2FF0EC0809106
:100880000002882391F04CDE882321F053DE81E0C2
:100890008093FD011092000208C081E08093000265
:1008A00060E273E086EE93E04ADEC0FF03C082E0C0
:1008B0008093FF01C1FF13C08091FF01882379F06D
:1008C00081508093FF01D1FD02C08FEF01C081E014
:1008D000D0FF81959091FE01890F8093FE01FF91D9
:1008E000EF91DF91CF91BF91AF919F918F917F91C8
:1008F0006F915F914F913F912F910F900FBE0F908D
:100900001F901895683121F138F46431B9F06731DE
:10091000D1F5F90184E80AC0693169F16032B1F0BA
:1009200032C09091BC0097FFFCCF4150442371F03E
:1009300091919093BB008093BC00F3CF1092B900CB
:1009400083E08093B80084E08093BC0081E0089548
:1009500024EA2093BC002091BC0027FFFCCFFC01BF
:1009600082898093BB0084E88093BC008091BC00A6
:1009700087FFFCCFEBCF84E98093BC00FAE1FA95C6
:10098000F1F700C0E3CF80E008956D32A9F058F48C
:10099000683271F0693211F58FEC97E00197F1F749
:1009A00000C000001BC06C3461F06D3489F016C0CB
:1009B00087B18F7C87B912C092E09A95F1F700C099
:1009C0000DC0411103C03D9A459808C03D9806C02E
:1009D000411103C03C9A449801C03C9881E00895BD
:1009E000A0E0B0E0E5EFF4E07AC77C01DC0191968D
:1009F000BC9091979296DC909297ED91FC91C18872
:100A0000C0E0D0E0D701ED91FC91119720895F966D
:100A10000D911C919097B8E02B9FA00111244C9F41
:100A2000C0014D9F900D5C9F900D1124080F191F60
:100A30004C2F4D0D60E0C70117D68C2F8F5F8B15A3
:100A400028F421968C2F8D0D8C15E0F2CDB7DEB7F2
:100A5000E9E061C7FC01A081B18150969C9141A160
:100A6000949FA001112483E0440F551F8A95E1F75C
:100A700060E070E0878D90A160C7DC0192966C9376
:100A800092975D96ED91FC915E970190F081E02D3B
:100A900009950895CF93DF93EC01FC01E45AFF4FD1
:100AA0008081882311F0CE01D5DF60E0CE01E5DF43
:100AB000DF91CF910895A1E0B0E0E0E6F5E014C742
:100AC0008C018EDFD80192966C91929791968C91C1
:100AD0009197680FED91FC918189681720F0C8010A
:100AE000FCD580E00DC0F801E45AFF4F80818823D7
:100AF00021F0C8016983AEDF6981C801BEDF81E0F2
:100B00002196E4E00DC7CF93DF93EC01C3DFCE0164
:100B1000D2DF8111FCCFDF91CF910895A1E0B0E049
:100B2000E3E9F5E0DDC67C016B0189019A014AEA3F
:100B30005AE068E77BE06AD6CE0101967FD686014F
:100B40002EE339E04981BC01C70140D42196E8E099
:100B5000E3C6FC01E60FF11D849190E0982F8827F1
:100B60003196E4918E0F911D0895213039F020F0D7
:100B7000223031F4841B0895840F0895860F089560
:100B8000861B0895213039F020F0223031F4861B85
:100B90000895860F0895841B0895840F089580E0BA
:100BA00008950F931F93CF93DF93EC018B01FB010B
:100BB000849188833196E491E983FB013296E49134
:100BC000EA83FB013396E491EB83FB013496E491D5
:100BD000EC83FB013596E491ED83FB013696E491BD
:100BE000EE83FB013796E491EF83FB013896E491A5
:100BF000E887FB013996E491E987FB013A96E49195
:100C0000EA87FB013B96E491EB87FB013C96E4917C
:100C1000EC87FB013D96E491ED87FB013E96E49164
:100C2000EE87FB013F96E491EF87FB017096E4911C
:100C3000E88B61E1C8018DDF9A8B898B63E1C80184
:100C400088DF9C8B8B8B65E1C80183DF9E8B8D8B4E
:100C5000DF91CF911F910F910895DC0118964C916F
:100C60001897ED91FC911197249130E0042E02C069
:100C7000359527950A94E2F7862F840F883010F473
:100C8000E22F0EC031961196FC93EE939491E92FCA
:100C900098E0941B01C0EE0F9A95EAF7E22B88507A
:100CA00018968C9381E090E001C0880F6A95EAF76E
:100CB00081508E2308950F931F93CF93DF93EC0100
:100CC0008C010E5C1F4F7BAB6AAB1AAEFC01ED5B77
:100CD000FF4F6081C801C1DF88AFFE01EC5BFF4FB1
:100CE0006081C801BADF89AFFE01E55AFF4F9081EC
:100CF0009CAF81E0911180E08DAFDF91CF911F918A
:100D00000F910895CF93C62FA8DFC15021E030E0A6
:100D100001C0220FCA95EAF7821BCF910895A0E087
:100D2000B0E0E4E9F6E0D7C5EC01F62E842E1EA96A
:100D3000DFA85C018BE5A80EB11CE8ACE11ACE2C53
:100D4000FE1408F4CF2C7DA80EAD202F4D2D612F61
:100D50008CA918DF982E202F4D2D612F872D05DFB0
:100D6000482F882011F09CAD04C09BAD911107C0A5
:100D70009DADF50190832C2D692DCE0142D2FE143C
:100D800020F0FE18D39410E0D8CF1F0D1EABDFAAC1
:100D9000CDB7DEB7EDE0BBC5A1E0B0E0E1EDF6E038
:100DA00099C53C017C0182E3E80EF11CC30183DF9D
:100DB000D301D996DC90F301EB5BFF4F6081C70153
:100DC000A1DFA82EF301EA5BFF4F6081C7019ADF24
:100DD000C82EF301E95BFF4F6081C70193DFB82E96
:100DE000F30100AD10160CF073C096ADCD0CC1949C
:100DF000292F4C2D6A2D84A99983C4DE182FD30185
:100E0000D4968C93D4979981292F4C2D6A2DD59601
:100E10008C91ABDE482FF30185AB9981913091F035
:100E200060F09230A9F09330F1F4212F2D0D801B4A
:100E300001E0040F41E0480F18C0212F200F082FB8
:100E40000D0D13C09D1921E0210F080F190F0DC0C2
:100E500091E0892F801B21E0210F9D1901E0040FF3
:100E6000490F180F02C0082F212F612FC301EFD1A6
:100E7000882371F1D301D6961C92D697D7961C92EF
:100E800083010F5B1F4F4301B2E48B0E911CF801ED
:100E90006081C701E2DEA82ED4016C91C701DDDEBE
:100EA000C82E40E06A2DC3013ADF41E06C2DC3013A
:100EB00036DF61E0C701D1DE8111F3CFF30187A9ED
:100EC0008D152CF3E55AFF4FD301DC968C9180836E
:100ED0008B2D2196EEE01AC5FC0186A597A54796B5
:100EE0006F3F710509F018F56136710518F0EE5A7B
:100EF000FF4F05C06134710530F0E05BFF4F20818A
:100F00003181820F931F9C012F5F3F4FF901449164
:100F1000442349F1FC01449150E04617570711F46E
:100F200002960895F9012491820F911DECCFEC5A9D
:100F3000FF4F20813181820F931FFC01249130E00B
:100F4000322F22273196E4912E2B2115310559F0AD
:100F50002617370711F403960895FC013296E491A1
:100F60008E0F911DEACF80E090E00895FC0163AF01
:100F70000895EF92FF920F931F93CF93DF93EC01AD
:100F8000062F142F79018EAD813089F050F0823018
:100F9000A1F08330B9F4E8A9F9A9CE010995080FA9
:100FA00011C0E8A9F9A9CE010995180F0BC0E8A94D
:100FB000F9A9CE010995081B05C0E8A9F9A9CE0138
:100FC0000995181B0CAB1DABB701CE0185DF00974F
:100FD00021F0BC01CE01E0DE01C080E0CDB7DEB77C
:100FE000E6E09CC4AF92BF92DF92EF92FF920F9324
:100FF0001F93CF93DF9300D0CDB7DEB75C01162FE0
:10100000042F29833A830FD22981E22E3A81F32ECD
:10101000D12CD7016D917D01D5011296ED91FC91F6
:101020001397C50109958F3FBFEF9B07E1F08E3FF6
:10103000EFEF9E0771F39C01402F612FC50199DFEF
:10104000D501DE962C91213049F030F0223041F06C
:10105000233039F4081B05C0180F03C0080F01C066
:10106000181BD80ED6CF8D2D0F900F90DF91CF91FA
:101070001F910F91FF90EF90DF90BF90AF90089578
:10108000E9E0FAE0DC011396FC93EE931297AACF05
:10109000CF93DF93FC0126A537A5232BC9F1E45B91
:1010A000FF4F2081EC01C95ADF4F288331965081D0
:1010B000DC01A85ABF4F5C9339963081332341F14C
:1010C000313069F43897308123170CF43883FC01F0
:1010D000E15BFF4F80818517DCF48C9319C0FC0124
:1010E000E75BFF4F408132963081822F220F990BB0
:1010F000632F032E000C770B640F711D47FD7A954B
:101100008617970714F4430F488335170CF43C9364
:10111000DF91CF9108952FEC35E0FC0131AB20AB8E
:101120000895CF93DF93FC0126A537A5261737072F
:1011300039F0EC0177A766A7CF9633DDCE01A8DFA3
:10114000DF91CF9108950F93DC0192965C91929775
:1011500093963C91213089F4631708F050C0B8EFA2
:101160005B9F400D1124FC0124A1421708F047C0E9
:10117000038CF48DE02D21E041C0023019F46F5F43
:10118000621B04C0033011F44F5F421BF8EF5F9FF6
:10119000400D1124DC0194965C91702F717000FD5C
:1011A00014C0451760F5260F261730F4631718F49E
:1011B0002FEF230F03C060E0631708F52223F9F037
:1011C000321708F4232F261B13C06317C0F4240F13
:1011D000241730F4451718F42FEF250F03C040E013
:1011E000451768F4222359F0521708F4252F241BC1
:1011F000DC015B96ED91FC915C97072F09950F91AF
:1012000008950F93222349F0DC015D96ED91FC9146
:101210005E970280F381E02D09950F910895FC01FE
:10122000E55AFF4F633010F46083089581E08083B6
:101230000895461730F4821740F081E0241730F00B
:1012400002C08217D0F380E0089581E00895FF92F4
:101250000F931F93CF93DF93EC01162FF22E202FC5
:101260006DA58CA5E6DF882329F02F2D412F6BA5D6
:101270008AA5DFDFCDB7DEB7E5E051C3EF92FF927D
:101280000F931F93CF93DF93DC01942F9770E1E0CE
:10129000F0E0092E01C0EE0F0A94EAF71E2FED01CF
:1012A000C55ADF4F8881823028F47E2F813019F4AF
:1012B00010E001C070E050E0487F5F96ED90FC9038
:1012C0009097ED91FC9111978089849FF001859F03
:1012D000F00D1124E60FF11DEE0DFF1D01110CC0E4
:1012E0002E0F8081872B812781932E13FACF1DC06B
:1012F000770F110F2223C9F03081372B312730832C
:101300009F5F977021509111F3CF93968C91939793
:10131000E80FF11D8881823020F4813021F011E046
:1013200002C011E0E7CF71E0E5CFCDB7DEB7E6E070
:10133000F5C2FC0191A1892F880F880F880F84A323
:10134000A081B18150968C915097803208F08FE146
:10135000880F880F880F83A322A1822F880F880F00
:10136000880F85A351963C915197422F50E0490F29
:10137000511D632F70E06417750714F4932F921BAF
:1013800086A328E0929F800D112487A380EF80A779
:1013900054968D919C915597813F910508F480A7B3
:1013A00056968C9181A70895CF93DF93EC01C1DF0E
:1013B0001AA68BA18BA78EA18CA78FA18DA7DF91D9
:1013C000CF9108950F93BFDE0F9108950F931F9350
:1013D000CF93DF93EC011FA61EA63C8F2B8F78A323
:1013E0006F8F49A31AA2FC01E55AFF4F81E0808369
:1013F000319680831E8F0D8FD801ED91FC91CE0127
:101400000995CE0188DE1EAEDF91CF911F910F911D
:101410000895662329F06A3019F0862F90E0089528
:101420008FEF9FEF0895FC01158A0895EF92FF92C8
:101430001F93CF93DF93EC01162F7A011DD260E446
:10144000CE010CD2E885F9859701412F67E1CE01E5
:101450000995CE011CD2DF91CF911F91FF90EF90A3
:101460000895462FDC011696ED91FC91179720E028
:1014700030E065E109950895462FDC011696ED915F
:10148000FC91179720E030E066E1099508959A01F4
:10149000DC011696ED91FC911797462F67E10995AF
:1014A0000895DC011696ED91FC91179720E030E04D
:1014B00040E068E109950895DC011696ED91FC91F4
:1014C000179720E030E040E069E109950895A1E038
:1014D000B0E0ECE6FAE006C27C018B01D8016C9129
:1014E0006731D9F078F4653190F1F8014181498391
:1014F000D7011696ED91FC91179720E030E0C701D7
:10150000099522C06A3198F06E3F09F5F8014181D2
:10151000498369E2C7015BD117C0F80181818983E2
:10152000AE014F5F5F4F61E0C701B1DF0DC00F5FDC
:101530001F4FD7011696ED91FC91179720E030E0F0
:1015400040E0C7010995CACF0E5F1F4FC7CF219654
:10155000E6E0E4C1EF92FF921F93CF93DF9300D0B8
:10156000CDB7DEB77C01142F673128F4653140F424
:10157000643119F135C0673169F06A31E0F030C08B
:101580007BD160E0C7016AD1612FC70167D1C70174
:101590007ED111C0A901193158F068E1C701298332
:1015A0003A8344DF185129813A81285E3F4FF2CFB8
:1015B000612FC7013BDF81E014C0DC0152968C91A2
:1015C00052978F3F19F488E752968C93D70118965B
:1015D000ED91FC911997412F64E1C701099501C074
:1015E00080E00F900F90DF91CF911F91FF90EF90CF
:1015F0000895FC0171836083FB012289FC01208B2B
:101600000895CF93DF93EC01EA85FB8520E030E07D
:1016100040E068E20995EE81FF8120E030E040E0A3
:1016200064E1CE01099541E06BE4CE01D0D0E881C0
:10163000F981448169E2CE01CAD040E06BE4CE0179
:10164000C6D0E881F981448169E2CE01C0D041E091
:101650006BE4CE01BCD0E881F981458169E2CE011D
:10166000B6D0DF91CF910895A5E0B0E0E9E3FBE0CB
:101670003BC16C834D832B831A830983DC01149651
:10168000ED91FC9115979E012F5F3F4F41E06FE078
:1016900009952596E4E044C1DC011496ED91FC9196
:1016A000159720E030E040E069E009950895DC01FD
:1016B0001496ED91FC91159720E030E040E06AE04F
:1016C00009950895462FDC011496ED91FC9115972C
:1016D00020E030E06BE009950895DC011496ED916F
:1016E000FC91159720E030E040E060E10995089515
:1016F000EF92FF920F931F93CF93DF93EC01142F80
:101700007901693021F464E271E073DF59C06D3012
:1017100089F128F46A3001F16B3011F153C06E3059
:10172000D1F16F3009F04EC0BCDEF701838108892A
:10173000F8E08F9F000D1124602F62956F7060613B
:10174000CE018FDE602F6F70CE018BDEF7016481DA
:10175000606BCE0186DE27C054DF64E571E007C010
:10176000411103C06FE471E002C06AE471E0CE0190
:10177000AEDE26C0411107C063E471E0A8DEE88157
:10178000F981828906C06CE371E0A1DEE881F9810C
:101790008389888B15C085DE61E8CE0162DE612F0A
:1017A000CE016ADE0BC0F701408151816281660F74
:1017B000660F660FCE016BDE1150A9F7CE017CDEFD
:1017C00081E001C080E0CDB7DEB7E6E0A7C0DC0174
:1017D0001A96ED91FC911B9720E030E00995089551
:1017E00080E00895FC011182108280EF9BE09583D8
:1017F0008483978386839187808793878287118AE2
:10180000148A158A8FEF828B878B0895A0E0B0E051
:10181000EBE0FCE063C0EC015B016A017901E2DF0F
:10182000BD82AC82DF82CE82F986E8861B870A877A
:10183000CE0132DFCDB7DEB7EAE06CC022E0FC01BA
:10184000208381E092E008959A01DC011896ED91E1
:10185000FC911997462F67E109950895A1E0B0E042
:10186000E3E3FCE043C06983AE014F5F5F4F61E09B
:10187000EBDF2196E2E056C0DC011896ED91FC9179
:10188000199720E030E040E068E109950895DC0117
:101890001896ED91FC91199720E030E040E069E165
:1018A00009950895AA1BBB1B51E107C0AA1FBB1FC6
:1018B000A617B70710F0A61BB70B881F991F5A95DC
:1018C000A9F780959095BC01CD0108952F923F9284
:1018D0004F925F926F927F928F929F92AF92BF9240
:1018E000CF92DF92EF92FF920F931F93CF93DF93EC
:1018F000CDB7DEB7CA1BDB0B0FB6F894DEBF0FBE49
:10190000CDBF09942A88398848885F846E847D8495
:101910008C849B84AA84B984C884DF80EE80FD8097
:101920000C811B81AA81B981CE0FD11D0FB6F8940D
:10193000DEBF0FBECDBFED010895DC0101C06D9388
:1019400041505040E0F70895FB01DC0101900D92F9
:101950000020E1F70895AEE0B0E0E0EBFCE0C4CF9A
:101960000D891E8986E08C831A8309838FEF9FE798
:101970009E838D83AE01475E5F4F6F89788DCE0168
:10198000019609D02F813885F801E20FF31F1082EC
:101990002E96E4E0C5CFACE0B0E0E0EDFCE096CF01
:1019A0007C016B018A01FC0117821682838181FF11
:1019B000B0C1CE0101964C01F7019381F60193FD70
:1019C000859193FF81916F01882309F49EC185322F
:1019D00039F493FD859193FF81916F01853221F454
:1019E000B70190E0B1D1E8CF512C312C20E020326A
:1019F000A0F48B3269F030F4803259F0833269F40C
:101A000020612CC08D3239F0803339F4216026C03A
:101A10002260246023C0286021C027FD27C030ED4C
:101A2000380F3A3078F426FF06C0FAE05F9E300D9A
:101A30001124532E13C08AE0389E300D1124332E0A
:101A400020620CC08E3221F426FD5FC1206406C0E6
:101A50008C3611F4206802C0883641F4F60193FDFB
:101A6000859193FF81916F018111C1CF982F9F7D47
:101A70009554933028F40C5F1F4FFFE3F9830DC09A
:101A8000833631F0833771F0833509F057C021C0B8
:101A9000F801808189830E5F1F4F44244394512CA9
:101AA000540114C03801F2E06F0E711CF801A080DF
:101AB000B18026FF03C0652D70E002C06FEF7FEF9D
:101AC000C5012C8736D12C0183012C852F77222E3E
:101AD00016C03801F2E06F0E711CF801A080B180D1
:101AE00026FF03C0652D70E002C06FEF7FEFC501D8
:101AF0002C8714D12C012C852068222E830123FCF5
:101B000019C0832D90E048165906A0F4B70180E271
:101B100090E01AD13A94F5CFF50127FC859127FE84
:101B200081915F01B70190E00FD131103A94F1E05B
:101B30004F1A51084114510479F7DEC0843611F070
:101B4000893631F5F80127FF07C0608171818281F4
:101B500093810C5F1F4F08C060817181072E000CBC
:101B6000880B990B0E5F1F4F2F76722E97FF09C0BF
:101B700090958095709561957F4F8F4F9F4F20680E
:101B8000722E2AE030E0A40117D1A82EA81843C075
:101B9000853729F42F7EB22E2AE030E025C0F22FBF
:101BA000F97FBF2E8F36C1F018F4883579F0ADC0BB
:101BB000803719F0883721F0A8C02F2F2061B22E6E
:101BC000B4FE0DC08B2D8460B82E09C024FF0AC05E
:101BD0009F2F9660B92E06C028E030E005C020E1B6
:101BE00030E002C020E132E0F801B7FE07C06081BA
:101BF0007181828193810C5F1F4F06C0608171816A
:101C000080E090E00E5F1F4FA401D6D0A82EA81848
:101C1000FB2DFF777F2E76FE0BC0372D3E7FA51460
:101C200050F474FE0AC072FC08C0372D3E7E05C019
:101C3000BA2C372D03C0BA2C01C0B52C34FF0DC00F
:101C4000FE01EA0DF11D8081803311F4397E09C057
:101C500032FF06C0B394B39404C0832F867809F092
:101C6000B39433FD12C030FF06C05A2CB31418F4DD
:101C7000530C5B18B32CB31460F4B70180E290E00E
:101C80003C8762D0B3943C85F6CFB31410F43B1874
:101C900001C0312C34FF11C0B70180E390E03C87D4
:101CA00053D03C8532FF16C031FD03C088E790E079
:101CB00002C088E590E0B7010CC0832F867851F010
:101CC00031FF02C08BE201C080E237FD8DE2B70137
:101CD00090E03AD0A51430F4B70180E390E034D01E
:101CE0005A94F8CFAA94F401EA0DF11D8081B7014E
:101CF00090E02AD0A110F6CF332009F45DCEB701D1
:101D000080E290E021D03A94F7CFF7018681978165
:101D100002C08FEF9FEF2C96E2E1F4CDFC0105901D
:101D2000615070400110D8F7809590958E0F9F1FDD
:101D30000895FC016150704001900110D8F7809522
:101D400090958E0F9F1F08950F931F93CF93DF934E
:101D5000FB01238121FD03C08FEF9FEF28C022FFED
:101D600016C046815781248135814217530744F4B8
:101D7000A081B1819D012F5F3F4F318320838C93E0
:101D8000268137812F5F3F4F3783268310C0EB01B9
:101D9000092F182F0084F185E02D0995892BE1F694
:101DA0008E819F8101969F838E83812F902FDF915B
:101DB000CF911F910F910895FA01AA27283051F170
:101DC000203181F1E8946F936E7F6E5F7F4F8F4F6C
:101DD0009F4FAF4FB1E03ED0B4E03CD0670F781FCB
:101DE000891F9A1FA11D680F791F8A1F911DA11DB0
:101DF0006A0F711D811D911DA11D20D009F46894E9
:101E00003F912AE0269F11243019305D3193DEF690
:101E1000CF010895462F4770405D4193B3E00FD046
:101E2000C9F7F6CF462F4F70405D4A3318F0495D31
:101E300031FD4052419302D0A9F7EACFB4E0A69514
:101E40009795879577956795BA95C9F70097610536
:101E5000710508959B01AC010A2E0694579547958C
:101E600037952795BA95C9F7620F731F841F951F81
:081E7000A01D0895F894FFCFB6
:101E7800FF3C2053687574746572203E20004254FC
:101E88004E3A256425642C20454E433A2533640098
:101E9800D409E2090001140A6464323200127A009B
:101EA8000004289610040000800020001815A015D2
:101EB800C019FF1815A115C819FF1815AE19FF1874
:101EC80015AF19FF1815AE15D5168015A8161F15CC
:101ED800D316001540158D16141520160015A115DA
:101EE800C815DA16021581168F15D916F115DB16E5
:0A1EF80040152E15A415A619FF00D1
:00000001FF
