:1000000093C125C3ACC139C2AAC1A9C1A8C1A7C1A6
:10001000A6C1A5C1A4C1A3C1A2C1A1C1A0C19FC1C4
:100020009EC19DC19CC1207F000000000000000017
:100030000000005F5F0000000003070000070300EE
:1000400000227F7F227F7F2200242E6B6B3A1200DA
:10005000006333180C6663000020764F59376650F2
:10006000000000070300000000001C3E6341000088
:10007000000041633E1C000000000A041F040A0047
:10008000000008083E080800000000703000000072
:100090000008080808080800000000606000000070
:1000A000006030180C060300003E7F41417F3E0097
:1000B0000040427F7F40400000627159494F460036
:1000C00000224149497F3600001C1E517F7F5000AD
:1000D00000274745457D3900003E7F494979320078
:1000E000000101797D07030000367F49497F360012
:1000F00000264F49497F3E000000003636000000D0
:1001000000000076360000000000081C3663410045
:10011000001414141414140000004163361C080069
:1001200000020159590F06003C4299A5A5B9221CAD
:10013000007E7F09097F7E00007F7F49497F36006E
:10014000003E7F4141412200007F7F41417F3E00D0
:10015000007F7F4949414100007F7F09090101007B
:10016000003E7F4149793A00007F7F08087F7F0089
:100170000000417F7F41000000204040407F3F0061
:10018000007F7F081C776300007F7F404040400075
:100190007F060C180C067F7F7F070E1C38707F00CF
:1001A000003E7F41417F3E00007F7F11111F0E0006
:1001B000003E7F4141FFBE00007F7F09097F76003E
:1001C00000264F49497932000001017F7F0101007B
:1001D000003F7F40407F3F00007F7F40403F1F0047
:1001E0007F7F407F403F1F0000777F08087F7700B8
:1001F00000070F78780F0700006171594D474300E1
:1002000000007F7F414100000003060C18306000B1
:10021000000041417F7F000000000C0603060C0037
:1002200080808080808080800000000103020000C8
:1002300000207454547C7800007F7F44447C380054
:1002400000387C444444280000387C44447F7F00CC
:1002500000387C54545C48000000047E7F05010097
:100260000018BCA4A4FC7C00007F7F04047C780000
:100270000000447D7D4000000000408084FD7D0042
:10028000007F7F10386C4400000000017F7F000079
:100290007C7C047C047C7800007C7C04047C7800FA
:1002A00000387C44447C380000FCFC44447C38002A
:1002B00000387C4444FCFC00007C7C0804040400FE
:1002C00000485C54547424000000043F7F44000044
:1002D000003C7C40407C7C00007C7C40403C1C001E
:1002E0007C7C407C403C1C00006C7C10107C6C00D2
:1002F000001CBCA0A0FC7C00004464745C4C440066
:100300000000083E77410000000000FFFF000000F1
:10031000000041773E08000000080C04081018088F
:10032000000000000000000011241FBECFE5D4E053
:10033000DEBFCDBF10E0A0E6B0E0E6EBF3E102C027
:1003400005900D92A43FB107D9F721E0A4EFB0E0EA
:1003500001C01D92A632B207E1F700D12AC850CEE3
:10036000A4E1B0E0E5EBF1E05AC58E010F5F1F4F4D
:1003700084E1F80111928A95E9F753D11F928F9386
:100380008091F4001F928F938091F5001F928F93BC
:1003900081E690E09F938F931F930F9369D520E0A0
:1003A000A80160E070E080E090E014D133B323B3A3
:1003B00083B391E032FF90E01F929F9391E021FF81
:1003C00090E01F929F9381701F928F9383E790E03C
:1003D0009F938F931F930F934BD520E0A80161E06B
:1003E00070E080E090E0F6D081E0829B80E01F9298
:1003F0008F9382E890E09F938F931F930F9338D54C
:1004000020E0A80162E070E080E090E0E3D00FB669
:10041000F894DEBF0FBECDBF6496E4E01CC581E05A
:100420002091F6003091F700121613060CF080E0D0
:1004300008951092F7001092F60008959093F90035
:100440008093F800CB016AE070E0C7D47093F700A6
:100450006093F60008958AEF83BD85B58C6085BDF5
:1004600089B7806889BF0895809102019091030146
:10047000909301018093000108951F920F920FB68F
:100480000F9211242F933F934F935F936F937F931A
:100490008F939F93AF93BF93EF93FF938091FE0051
:1004A0009091FF00019665E070E097D49093FF0073
:1004B0008093FE00892B91F58091020190910301B8
:1004C000019660E177E289D4909303018093020161
:1004D0008091FA009091FB001816190664F40197B8
:1004E0009093FB008093FA00892B29F4E091FC00A3
:1004F000F091FD0009958091F6009091F700181693
:10050000190664F401979093F7008093F600892B05
:1005100029F4E091F800F091F9000995FF91EF912D
:10052000BF91AF919F918F917F916F915F914F910B
:100530003F912F910F900FBE0F901F9018952FEFA6
:1005400080E792E0215080409040E1F700C0000039
:100550006BD081DF1AD088DF78940895F0DF80EBCC
:1005600091E00ED054D09091F50089278093F5004A
:1005700053D09091F40089278093F40025D0F2CFD6
:10058000909305018093040108950F931F930AEC43
:1005900013E024E933E04FE155E06FE575E086E0D4
:1005A00091E0D5D386E091E055D386E091E09FD3EA
:1005B00060E086E091E059D366E270E086E091E089
:1005C0005FD11F910F910895E0910401F091050111
:1005D00009950895CF93C22F222319F091E09093AB
:1005E00017019A01462F682F86E091E08CD1C11146
:1005F00010921701CF91089583B38091250188232C
:1006000029F081E0809321011092250108958091C5
:10061000220110922201089580912101109221015E
:1006200008958091230108952FEF80E792E02150F3
:1006300080409040E1F700C0000085B7816085BF31
:100640008BB780648BBF83B38093600008951F9243
:100650000F920FB60F9211242F933F934F935F93F6
:100660006F937F938F939F93AF93BF93CF93DF93BA
:10067000EF93FF9383B3C0916000C827809360001D
:100680008FEC97E00197F1F700C00000D3B3C2FFF1
:1006900015C08FE19EE40197F1F700C00000D2FF82
:1006A00038C080912501882349F0B9DE882321F0E4
:1006B000C0DE81E08093220110922501C0FF03C0BB
:1006C00082E080932401C1FF11C08091240188231E
:1006D00069F0815080932401D1FD24C08FEFD0FFB9
:1006E000819590912301890F80932301FF91EF91D0
:1006F000DF91CF91BF91AF919F918F917F916F913A
:100700005F914F913F912F910F900FBE0F901F90CF
:10071000189581E08093250160E273E08CEF92E010
:100720008DDECCCF81E0DBCF6831F9F030F464317D
:10073000B1F0673141F080E00895693121F1603214
:10074000D1F781E00895F90184E84423D1F3919130
:1007500093B986BF06B607FEFDCF4150F6CF11B85C
:1007600082E080B984E086BFECCF24EA26BF06B6DB
:1007700007FEFDCFFC01828983B984E886BF06B6F7
:1007800007FEFDCFDECF84E986BFFAE1FA95F1F7E7
:1007900000C0D7CF6D32D9F030F4683269F06932D9
:1007A00079F081E008956C34B9F06D34D1F74111DE
:1007B0001AC0A49AAC98F5CF84B38F7C84BBF1CFD8
:1007C0008FEC97E00197F1F700C00000EACF92E0CC
:1007D0009A95F1F700C0E5CF411103C0A59AAD98F5
:1007E000E0CFA598DECFA498DCCFCF93DF93DC01D8
:1007F0001C96ED91FC911D9784913196E4916817B8
:1008000010F1E61700F170E0681B710983E0660FD4
:10081000771F8A95E1F7CB010296EA01665F7F4F69
:100820001C96ED91FC911D97E80FF91FE491E99357
:10083000019686179707A1F751968C9181110BC0ED
:10084000DF91CF910895FA01CA0108961192E81735
:10085000F907E1F7F1CFFA019A01285F3F4F808154
:1008600080958193E217F307D1F7EACF662329F049
:100870006A3019F0862F90E008958FEF9FEF08956A
:10088000FC01758764870895A8E0B0E0E9E4F4E02E
:10089000C2C27C01D62EC42EAE014F5F5F4F622FC5
:1008A000A4DF8E010F5F1F4F21E04C2D6D2DC7017E
:1008B000AED12896E8E0CBC2A0E0B0E0E1E6F4E0FB
:1008C000ABC2EC01E62ED42E1D8A8901F12CF80171
:1008D00061918F01EA81FB81CE0109958F3FFFEF86
:1008E0009F0761F08E3F2FEF920789F3282F4D2D40
:1008F0006E2DCE01C9DFE394F394E9CF8F2DCDB7F0
:10090000DEB7E7E0A5C2E6E3F4E0DC011396FC9372
:10091000EE931297D1CF0895EF92FF921F93CF934A
:10092000DF93EC01162F7A0142D260E4CE0131D27E
:10093000E885F9859701412F67E1CE010995CE0140
:1009400041D2DF91CF911F91FF90EF900895462FF4
:10095000DC011696ED91FC91179720E030E065E1FF
:1009600009950895462FDC011696ED91FC91179795
:1009700020E030E066E1099508959A01DC011696C1
:10098000ED91FC911797462F67E109950895DC01D9
:100990001696ED91FC91179720E030E040E068E179
:1009A00009950895DC011696ED91FC91179720E0CA
:1009B00030E040E069E109950895A1E0B0E0E2EEA1
:1009C000F4E02BC27C018B01D8016C91673101F1FD
:1009D00028F4653170F42196E6E03BC26A3110F1EB
:1009E0006E3FC9F7F8014181498369E2C70190D19F
:1009F0000CC0F80141814983D7011696ED91FC9115
:100A0000179720E030E0C70109950E5F1F4FDCCF3C
:100A1000F80181818983AE014F5F5F4F61E0C701BB
:100A2000ACDFF3CF0F5F1F4FD7011696ED91FC910E
:100A3000179720E030E040E0C7010995C5CFEF925D
:100A4000FF921F93CF93DF93EC01142F673130F4A3
:100A50006531B8F4643139F180E005C0673149F09F
:100A60006A31D0F781E0DF91CF911F91FF90EF9035
:100A700008957901A701193170F4612FCE014CDF7F
:100A8000F1CF95D160E0CE0184D1612FCE0181D12B
:100A9000CE0198D1E7CF68E1CE013EDF185188E161
:100AA000E80EF11CE7CF8A898F3F11F488E78A8B23
:100AB000E885F985412F64E1CE010995D4CFEF9205
:100AC000FF920F931F93CF93DF93EC01042F7901D3
:100AD000693041F46FE870E05FD081E0CDB7DEB7F8
:100AE000E6E0B7C16D30E9F130F46A3061F16B30A6
:100AF00081F180E0F3CF6E3009F444C06F30C9F764
:100B000046DFF7011381110F110F110F6889160FBE
:100B1000612F62956F706061CE0119DF612F6F7078
:100B2000CE0115DFF7016481606BCE0110DFF701A4
:100B3000408151816281660F660F660FCE011DDF15
:100B40000150A9F726C030D06FEB70E0CE0135DF41
:100B5000C4CF411103C06AEB70E0F8CF65EB70E0E1
:100B6000F5CF411108C06EEA70E027DFE881F98116
:100B70008289888BB2CF67EA70E01FDFE881F98154
:100B80008389F7CF04DF61E8CE01E1DE602FCE017B
:100B9000E9DECE0107DFA1CFFC0171836083FB0199
:100BA0002289FC01208B0895CF93DF93EC01EA8525
:100BB000FB8520E030E040E068E20995EE81FF81AE
:100BC00020E030E040E064E1CE01099541E06BE4D3
:100BD000CE019ED0E881F981448169E2CE0198D0AE
:100BE00040E06BE4CE0194D0E881F981448169E270
:100BF000CE018ED041E06BE4CE018AD0E881F9814C
:100C0000458169E2CE0184D0DF91CF910895A5E0BE
:100C1000B0E0ECE0F6E003C16C834D832B831A83D4
:100C20000983DC011496ED91FC9115979E012F5FCD
:100C30003F4F41E06FE009952596E4E00CC1DC01EF
:100C40001496ED91FC91159720E030E040E069E0CA
:100C500009950895DC011496ED91FC91159720E01B
:100C600030E040E06AE009950895462FDC011496D3
:100C7000ED91FC91159720E030E06BE00995089527
:100C8000CF92DF92FF920F931F93CF93DF9300D009
:100C900000D01F92CDB7DEB78C011C8281E08B8320
:100CA0007A836983D801ED91FC91F1881D82F80166
:100CB000A081B181C480D5809E012F5F3F4F5096A7
:100CC0004C916FE0C801F60109958D818F5F8D838E
:100CD0008F1568F30F900F900F900F900F90DF918A
:100CE000CF911F910F91FF90DF90CF900895A8E0D2
:100CF000B0E0ECE7F6E095C0BE016F5F7F4F28E003
:100D0000FB0111922A95E9F7BBDF2896E2E0A5C026
:100D1000DC011A96ED91FC911B9720E030E00995DB
:100D2000089580E00895FC011182108281E996E027
:100D3000958384839783868391878087938782872F
:100D4000118A148A158A8FEF828B878B0895A0E011
:100D5000B0E0ECEAF6E05DC0EC015B016A0179010C
:100D6000E2DFBD82AC82DF82CE82F986E8861B8715
:100D70000A87CE0164DFCDB7DEB7EAE066C09A012C
:100D8000DC011896ED91FC911997462F67E10995C2
:100D90000895A1E0B0E0EEECF6E043C06983AE0157
:100DA0004F5F5F4F61E0EBDF2196E2E056C0DC0170
:100DB0001896ED91FC91199720E030E040E068E151
:100DC00009950895DC011896ED91FC91199720E0A2
:100DD00030E040E069E109950895AA1BBB1B51E191
:100DE00007C0AA1FBB1FA617B70710F0A61BB70B9B
:100DF000881F991F5A95A9F780959095BC01CD0140
:100E000008952F923F924F925F926F927F928F92AE
:100E10009F92AF92BF92CF92DF92EF92FF920F9389
:100E20001F93CF93DF93CDB7DEB7CA1BDB0B0FB693
:100E3000F894DEBF0FBECDBF09942A883988488850
:100E40005F846E847D848C849B84AA84B984C884E6
:100E5000DF80EE80FD800C811B81AA81B981CE0FDD
:100E6000D11D0FB6F894DEBF0FBECDBFED010895C2
:100E7000AEE0B0E0EDE3F7E0D2CF0D891E8986E069
:100E80008C831A8309838FEF9FE79E838D83AE0146
:100E9000475E5F4F6F89788DCE01019609D02F8113
:100EA0003885020F131FF80110822E96E4E0D3CF8D
:100EB000ABE0B0E0EDE5F7E0A4CF7C013B018A01B7
:100EC000FC0117821682838181FFCCC1CE0101967D
:100ED0005C01F7019381F30193FD859193FF81916B
:100EE0003F01882309F427C1853239F493FD8591A8
:100EF00093FF81913F01853221F4B70190E0CBD17E
:100F0000E8CF912C212C312CFFE1F31538F08B32F6
:100F1000D9F090F48032D9F0833249F137FC41C0E6
:100F200020ED280F2A3070F536FE24C08AE0989E06
:100F3000200D1124922E0EC08D32A9F0803371F74E
:100F4000232D2160322E06C0832D8260382EE32DA2
:100F5000E4603E2EF30193FD859193FF81913F0163
:100F60008111D2CF1EC0F32DF8603F2EF3CF232D79
:100F70002061E8CFEAE02E9E200D1124222EF32DD1
:100F8000F062F3CF8E3229F436FCD5C0232D2064D5
:100F9000D9CF8C3621F4832D8068382EDBCF88366C
:100FA000C9F2982F9F7D95549330D0F08336B9F1D4
:100FB0008337D9F1833509F063C0280122E0420E5E
:100FC000511CF801C080D18036FE42C0692D70E00E
:100FD000C6014BD14C01F32DF0683F2E82010BC0AE
:100FE0000C5F1F4F9FE3998388248394912C6501A4
:100FF000F32DFF773F2E33FC05C0822D90E088163D
:10100000990648F1522C8114910459F5552009F4A0
:1010100060CFB70180E290E03ED15A94F7CFF8015B
:10102000808189830E5F1F4FDFCF2801F2E04F0ED2
:10103000511CF801C080D18036FE07C0692D70E0D8
:10104000C6011ED14C018201D3CF6FEF7FEFF8CFE5
:101050006FEF7FEFBDCFB70180E290E01CD12A9403
:10106000CCCFF60137FC859137FE81916F01B70136
:1010700090E011D151105A9421E0821A9108C3CF07
:10108000843611F08936B9F5F80137FE2BC060813E
:101090007181828193810C5F1F4FF32DFF763F2E6C
:1010A00097FF09C090958095709561957F4F8F4F00
:1010B0009F4FF0683F2E2AE030E0A5011CD1C82EDA
:1010C000CA1836FE60C0232D2E7F422EC91408F0A8
:1010D00096C034FE05C032FC03C0832D8E7E482EA0
:1010E000892C53C060817181072E000C880B990BED
:1010F0000E5F1F4FD2CF8537B1F4232D2F7ED22E16
:101100002AE030E0F801D7FE37C06081718182812A
:1011100093810C5F1F4FA501EED0C82ECA18FD2D7C
:10112000FF773F2ECECF932D997FD92E8F3609F1A1
:1011300040F48835B1F0F701868197812B96E2E182
:101140007CCE803751F08837B1F7D4FE03C0FD2D37
:10115000F460DF2E20E130E0D5CFE92FE061DE2E14
:10116000F4CF34FE03C0292F2660D22E20E132E0D6
:10117000C9CF28E030E0C6CF6081718180E090E087
:101180000E5F1F4FC8CF8C2C432C44FE41C0FE0184
:10119000EC0DF11D80818033A1F5942D997E492EAF
:1011A000E42DE8705E2E43FC40C040FE3AC082143D
:1011B00008F040C02C0C922C981844FE40C0B70197
:1011C00080E390E068D042FE06C041FC35C088E76D
:1011D00090E0B70160D0C91408F43EC0CA94D12C85
:1011E000FFEFCF1ADF0ACA0CDB1CF60182916F01F8
:1011F000B70190E050D0AC14BD04B9F707CF8C2CE8
:10120000C4CF42FC02C08394CBCF83948394C8CFD5
:10121000842D867829F2F7CFB70180E290E03BD0A9
:1012200083948214C8F3512CC8CF8214E0F7522C57
:101230005818C3CF9C2CC1CF88E590E0CACF842D2D
:10124000867849F241FE06C08BE247FC8DE2B70189
:1012500090E0C0CF80E2F9CFB70180E390E01BD0EF
:101260009A94B9CF8FEF9FEF69CFFC010590615041
:1012700070400110D8F7809590958E0F9F1F0895AC
:10128000FC016150704001900110D8F78095909555
:101290008E0F9F1F08950F931F93CF93DF93182FE7
:1012A000092FEB018B8181FD09C01FEF0FEF812F0B
:1012B000902FDF91CF911F910F91089582FF14C05D
:1012C0002E813F818C819D81281739073CF4E8816C
:1012D000F981CF0101969983888310838E819F8144
:1012E00001969F838E83E3CFE885F985812F099549
:1012F000892BA1F3DACFFA01AA27283051F1203146
:1013000081F1E8946F936E7F6E5F7F4F8F4F9F4F99
:10131000AF4FB1E03ED0B4E03CD0670F781F891FDB
:101320009A1FA11D680F791F8A1F911DA11D6A0FA9
:10133000711D811D911DA11D20D009F468943F915C
:101340002AE0269F11243019305D3193DEF6CF015B
:101350000895462F4770405D4193B3E00FD0C9F721
:10136000F6CF462F4F70405D4A3318F0495D31FD8E
:101370004052419302D0A9F7EACFB4E0A6959795E1
:10138000879577956795BA95C9F7009761057105B7
:1013900008959B01AC010A2E069457954795379501
:1013A0002795BA95C9F7620F731F841F951FA01D5B
:0613B0000895F894FFCF40
:1013B600FF42544E3A256425642C20454E433A2577
:1013C60033640050494E433031322025642564256C
:1013D6006400494E543028504432292025640000C8
:1013E60001140A6464323200127A0000042896104E
:1013F600040000800020001815A015C019FF18155C
:10140600A115C819FF1815AE19FF1815AF19FF1841
:1014160015AE15D5168015A8161F15D3160015403E
:10142600158D16141520160015A115C815DA160205
:101436001581168F15D916F115DB1640152E15A434
:0414460015A619FFCF
:00000001FF
